:100000006DC0000088C0000086C0000084C00000F1
:1000100082C0000080C000007EC000007CC00000E4
:100020007AC0000078C0000076C0000074C00000F4
:1000300072C0000070C000006EC000006CC0000004
:100040006AC0000068C0000066C0000064C0000014
:1000500062C0000060C000005EC000005CC0000024
:100060005AC0000006C2000056C0000054C0000084
:1000700052C0000035C100004EC000004CC000005E
:100080004AC0000048C0000046C0000044C0000054
:1000900042C0000040C000003EC000003CC0000064
:1000A0003AC0000038C0000036C0000034C0000074
:1000B00032C0000030C000002EC000002CC0000084
:1000C0002AC0000028C0000026C000009D00A30038
:1000D000AA00B100B800BF00C600CD0011241FBEA9
:1000E000CFEFD1E2DEBFCDBF12E0A0E0B2E0EAEA9E
:1000F000FBE000E00BBF02C007900D92A033B107F8
:10010000D9F722E0A0E3B2E001C01D92A334B20708
:10011000E1F7EBD148C574CF8FEA80937A00109253
:100120007B0080E480937C00089590E08830910506
:10013000D8F5FC01EA59FF4F92C3ECE7F0E080816B
:10014000807E808337C0ECE7F0E08081807E816034
:10015000808330C0ECE7F0E08081807E8260808325
:1001600029C0ECE7F0E08081807E8360808322C03C
:10017000ECE7F0E08081807E846080831BC0ECE748
:10018000F0E08081807E8560808314C0ECE7F0E041
:100190008081807E866080830DC0ECE7F0E0808106
:1001A000807E8760808306C088EE93E04BD080E03D
:1001B00090E00895EAE7F0E0808180648083809198
:1001C0007A0084FFFCCF209178008091790090E044
:1001D000982F8827822B08959FB7F89484BB68B91D
:1001E00087E084BB99230CF47894089560E080E064
:1001F000F3DF60E081E0F0DF60E082E0EDCF0895C2
:10020000E62FF0E0E85EFD4F608190E8499FA00195
:100210001124642BE1CF08959FB7F89423E024BB09
:1002200088B987E084BB99230CF4789408958FEF04
:1002300087B987E083BB84B1806184B9D7DF8FEF52
:10024000EBCF08951F93CF93DF93AC01483E83E03B
:10025000580720F0C9E7D0E510E52FC0EA01D69590
:10026000C795D695C7959E01ABE7B4E101D3FC01D4
:10027000F695E795DF01AA5FBD4F1C9124E62E9FFE
:10028000C0012F9F900D1124481B590B8DEC489FE6
:10029000812D1124869586958695E82FF0E0EA5FFA
:1002A000FD4FD081880F982F990F990F890F481B08
:1002B000E42FF0E0EA5FFD4FC081612F82E08CDF28
:1002C0006D2F81E089DF6C2F80E086DFDF91CF9199
:1002D0001F9108957894089585B1806185B9089536
:1002E0001F920F920FB60F9211240BB60F924F92DE
:1002F0005F926F927F928F929F92AF92BF92CF92B6
:10030000DF92EF92FF922F933F934F935F936F9300
:100310007F938F939F93AF93BF93CF93DF93EF938D
:10032000FF93609135027091360280E090E0A6D193
:1003300020E030E040E85AE32FD220E030E040EA0D
:1003400050E42AD24B015C01609330027093310279
:10035000809332029093330265D1D62F609334029A
:1003600020E030E040E251E4C501B40115D22B0198
:100370003C01ED2EF12CB701660F771FC701880FE6
:10038000991F880F991F880F991F680F791F072ED3
:10039000000C880B990B74D19B01AC01C301B20115
:1003A000DCD040D1C62F6093370220E030E048EC2B
:1003B00052E4C501B401F0D14B015C0184E68E9D8D
:1003C000B0018F9D700D1124072E000C880B990B26
:1003D00057D19B01AC01C501B401BFD06B017C01B9
:1003E0008C2F90E0BC01660F771F880F991F880F34
:1003F000991F880F991F680F791F072E000C880B13
:10040000990B3ED19B01AC01C701B601A6D00AD120
:100410006093380241E06D2F82E0F2DE40E06091AF
:10042000370281E0EDDE40E06091380280E0E8DEF6
:10043000FF91EF91DF91CF91BF91AF919F918F91FC
:100440007F916F915F914F913F912F91FF90EF902E
:10045000DF90CF90BF90AF909F908F907F906F90E4
:100460005F904F900F900BBE0F900FBE0F901F909C
:1004700018951F920F920FB60F9211240BB60F9280
:100480002F933F934F935F936F937F938F939F939C
:10049000AF93BF93EF93FF938091C600813621F015
:1004A0008091C600813431F481E03FDE90933602C2
:1004B00080933502FF91EF91BF91AF919F918F9102
:1004C0007F916F915F914F913F912F910F900BBE54
:1004D0000F900FBE0F901F9018958770E82FF0E0D7
:1004E000E85DFD4F808198CE0895F6DEA0DE14DE33
:1004F0002ED01DD0EFDEC0E08C2FEFDFCF5F2FEFCF
:1005000084E39CE0215080409040E1F700C000006F
:10051000F3CF8091C0008823E4F78091C60008954E
:100520009091C00095FFFCCF8093C600089580E1B4
:1005300090E09093C5008093C40082E08093C00057
:1005400088E98093C10086E08093C200089569E83D
:1005500072E080E992E09BC108955058BB27AA271A
:100560000ED0E0C0D1D030F0D6D020F031F49F3F93
:1005700011F41EF4C6C00EF4E095E7FBBCC0E92FF1
:10058000E2D080F3BA17620773078407950718F063
:1005900071F49EF5FAC00EF4E0950B2EBA2FA02D43
:1005A0000B01B90190010C01CA01A0011124FF2720
:1005B000591B99F0593F50F4503E68F11A16F0401B
:1005C000A22F232F342F4427585FF3CF469537951A
:1005D0002795A795F0405395C9F77EF41F16BA0BDF
:1005E000620B730B840BBAF09150A1F0FF0FBB1F8D
:1005F000661F771F881FC2F70EC0BA0F621F731FD6
:10060000841F48F4879577956795B795F7959E3F32
:1006100008F0B3CF9395880F08F09927EE0F9795C0
:100620008795089598D088F09F5790F0B92F992713
:10063000B751A0F0D1F0660F771F881F991F1AF0ED
:10064000BA95C9F712C0B13081F09FD0B1E00895DA
:100650009CC0672F782F8827B85F39F0B93FCCF35B
:10066000869577956795B395D9F73EF490958095E3
:10067000709561957F4F8F4F9F4F0895E89409C003
:1006800097FB3EF490958095709561957F4F8F4FC5
:100690009F4F9923A9F0F92F96E9BB279395F695DB
:1006A000879577956795B795F111F8CFFAF4BB0F59
:1006B00011F460FF1BC06F5F7F4F8F4F9F4F16C0BD
:1006C000882311F096E911C0772321F09EE8872F47
:1006D000762F05C0662371F096E8862F70E060E003
:1006E0002AF09A95660F771F881FDAF7880F96957C
:1006F000879597F9089597F99F6780E870E060E023
:1007000008959FEF80EC089500240A9416161706AA
:1007100018060906089500240A94121613061406F2
:1007200005060895092E0394000C11F4882352F055
:10073000BB0F40F4BF2B11F460FF04C06F5F7F4F0D
:100740008F4F9F4F089557FD9058440F551F59F0F4
:100750005F3F71F04795880F97FB991F61F09F3FAE
:1007600079F087950895121613061406551FF2CFD7
:100770004695F1DF08C0161617061806991FF1CF27
:1007800086957105610508940895E894BB2766274E
:100790007727CB0197F908950BD0C4CFB5DF28F0A8
:1007A000BADF18F0952309F0A6CFABCF1124EECF16
:1007B000CADFA0F3959FD1F3950F50E0551F629FBC
:1007C000F001729FBB27F00DB11D639FAA27F00DAA
:1007D000B11DAA1F649F6627B00DA11D661F829FD1
:1007E0002227B00DA11D621F739FB00DA11D621FB6
:1007F000839FA00D611D221F749F3327A00D611DD3
:10080000231F849F600D211D822F762F6A2F1124B4
:100810009F5750408AF0E1F088234AF0EE0FFF1F07
:10082000BB1F661F771F881F91505040A9F79E3F3E
:10083000510570F060CFAACF5F3FECF3983EDCF338
:10084000869577956795B795F795E7959F5FC1F77B
:10085000FE2B880F911D9695879597F90895EE0FB9
:10086000FF1F0024001C0BBE0790F691E02D099499
:10087000A29FB001B39FC001A39F700D811D1124E1
:10088000911DB29F700D811D1124911D08950F932C
:100890001F93CF93DF93009731F46115710519F41D
:1008A00080E090E039C08B01EC016EE070E081E007
:1008B00090E037D0FC01892B99F380E88383011500
:1008C000110571F01387028781E8838380913902D3
:1008D00090913A02892B21F4F0933A02E093390285
:1008E0002097C9F0D187C0878381826083838091FC
:1008F0003B0290913C02892B71F4F0933C02E0930F
:100900003B0280913D0290913E02892B21F4F093AD
:100910003E02E0933D02CF01DF91CF911F910F91F5
:1009200008950F931F93CF93DF93869F8001879F36
:10093000100D969F100D1124C8010DD0EC010097E9
:1009400021F0A80160E070E027D1CE01DF91CF91C6
:100950001F910F9108950F931F93CF93DF938230D0
:10096000910510F482E090E0E0914102F0914202A2
:1009700020E030E0A0E0B0E0309719F140815181F3
:100980000281138148175907C8F08417950769F445
:10099000109731F012960C93129713961C9327C060
:1009A000009341021093420222C02115310519F033
:1009B0004217530718F49A01BD01EF01DF01F80156
:1009C000DBCF21153105F9F0281B390B2430310517
:1009D00080F48A819B816115710521F0FB0193836D
:1009E000828304C09093420280934102FE013296BA
:1009F00044C0FE01E20FF31F81939193225031090D
:100A0000398328833AC020913F0230914002232B42
:100A100041F420910202309103023093400220936E
:100A20003F0220910002309101022115310541F46D
:100A30002DB73EB74091040250910502241B350B9F
:100A4000E0913F02F0914002E217F307A0F42E1B61
:100A50003F0B2817390778F0AC014E5F5F4F241722
:100A6000350748F04E0F5F1F5093400240933F02FE
:100A70008193919302C0E0E0F0E0CF01DF91CF914C
:100A80001F910F910895CF93DF93009709F481C0D0
:100A9000FC01329713821282A0914102B09142026E
:100AA000109781F420813181820F931F20913F02A2
:100AB000309140022817390751F5F0934002E09336
:100AC0003F0267C0ED0120E030E0CE17DF0740F4C1
:100AD0004A815B819E0141155105F1F0EA01F5CF94
:100AE000D383C28340815181840F951FC817D907D2
:100AF00059F488819981840F951F02969183808390
:100B00008A819B81938382832115310529F4F09397
:100B10004202E09341023DC0E901FB83EA8349912F
:100B20005991C40FD51FEC17FD0761F480819181A5
:100B3000840F951F0296E9019983888382819381AE
:100B40009B838A83E0E0F0E012968D919C9113974D
:100B5000009719F0FD01DC01F7CF8D919C91119761
:100B60009D012E5F3F4F820F931F20913F023091D6
:100B700040022817390769F4309729F4109242028D
:100B80001092410202C013821282B0934002A093DD
:100B90003F02DF91CF910895DC0101C06D93415078
:0A0BA0005040E0F70895F894FFCFED
:100BAA000000430220003F065B4F666D7D277F6F82
:100BBA00777C395E5E5E79713F065B4F666D7D2795
:100BCA007F6F777C395E797181C3E7FF7E3C1800BD
:00000001FF
